:02000000802955
:020003000032C9
:02000B000032C1
:020013000032B9
:02001B000032B1
:020023000032A9
:10002B00758107D2B490A00085824785834885826D
:10003B004985834AD205C211745512004A80FEF5D8
:10004B00F0C211200531E547B5492CE548B54A27E3
:10005B00854982854A83A3AE82AF8390A676EEB59F
:10006B008209EFB5830590A00080048E828F838573
:10007B00824985834AD211854782854883E5F0F012
:10008B00A3AE82AF8390A676EEB58209EFB583055A
:10009B0090A00080048E828F83858247858348C21F
:0200AB0005222C
:00000001FF
