:02000000802955
:0400030012003D3278
:02000B000032C1
:020013000032B9
:02001B000032B1
:020023000032A9
:10002B00758107D2B4902000E4F0D288D2A8D2AF69
:10003B0080FEC0D0C082C0837533007534FF75302D
:10004B0000E5309000B993902000F0E05407F45491
:10005B0007F531E53130E0067532001200A4E531C9
:10006B0030E1067532011200A4E53130E20675323B
:10007B00021200A40530E530B404C6902000E4F071
:10008B00C289E533B40109E534D083D082D0D022C4
:10009B0074FFD083D082D0D0220533E533B4010D69
:1000AB00E53023253025329000BD93F53422FEFD3B
:0E00BB00FBF70104070205080306090A0B0003
:00000001FF
