:02000000802955
:0400030012003D3278
:02000B000032C1
:020013000032B9
:02001B000032B1
:020023000032A9
:10002B00758107D2B4906000E4F0D288D2A8D2AF29
:10003B0080FEC0D0C0F0C082C083C002C003C00429
:10004B00C0059060007CFF7A007BFEEBF0E0540F64
:10005B00640F6022BCFF29F5F01455F07022E5F017
:10006B007D001340030D80FAED75F003A42A900078
:10007B00A793FC906000EB23FB0ABA03CEEC800243
:10008B0074FFFC906000E4F0C289ECD005D004D082
:10009B0003D002D083D082D0F0D0D022010203044F
:0800AB000506070809000A0B15
:00000001FF
