:02000000802955
:0400030012003F3276
:02000B000032C1
:020013000032B9
:02001B000032B1
:020023000032A9
:10002B00758107D2B4908000E4F0D288C289D2A83F
:10003B00D2AF80FEC0F0C0D0C082C083C002C0036C
:10004B00C004C005C006C0079080007A007B007C0E
:10005B00FEECF0E0540F640FFDEBFEED600EC313EE
:10006B00FD50030AEEFFEE2403FE80EFEC23FC0BA6
:10007B00BB03DEE4F0C289BA0107EF9000A39380C3
:10008B000274FFD007D006D005D004D003D002D025
:10009B0083D082D0D0D0F0220102030405060708DA
:0400AB0009000A0B33
:00000001FF
