:02000000802955
:020003000032C9
:02000B000032C1
:020013000032B9
:02001B000032B1
:020023000032A9
:10002B00758107D2B4753800753920753A00753B68
:10003B0020D201C207745512004780FEC0E0C0F009
:10004B00C0D0C082C083F5F020011BE538B53A164D
:10005B00E539B53B11853A82853B83120090858249
:10006B003A85833BD207853882853983E5F0F012D8
:10007B000090858238858339C201D083D082D0D05D
:10008B00D0F0D0E022A3E582B4BA08E583B4240310
:04009B00902000228F
:00000001FF
