:02000000802955
:020003000032C9
:03000B000200717F
:020013000032B9
:02001B000032B1
:020023000032A9
:10002B00758107D2B490A00074FFF0758911D2A925
:10003B00D2AF740512004480FEB40B00501F900029
:10004B00A89390A000F0C28CC2A97530E67531015F
:10005B00758CEC758A78C28DD2A9D28C2274FF90E4
:10006B00A000F0C28C22C0E0C0D0C28CE58A247FF5
:10007B00F58AE58C34ECF58CD28CE53070021531B9
:10008B001530E53045317010C28CC082C08390A012
:10009B000074FFF0D083D082D0D0D0E032C0F9A46E
:0800AB00B0999282F880908662
:00000001FF
