:02000000802955
:0400030012003D3278
:02000B000032C1
:020013000032B9
:02001B000032B1
:020023000032A9
:10002B00758107D2B490E000E4F0D288D2A8D2AFA9
:10003B0080FEC002C003C004C005C006C0077A0022
:10004B007BFF7CFE7D0090E000ECF0E0540F640F32
:10005B00FEEDFF75F004EE13FE50030AEFFBEF24E9
:10006B0003FFD5F0F1EC23FC0DBD03DDE4F0C289F9
:10007B0074FFBA0105EB90009293D007D006D00520
:10008B00D004D003D002220102030405060708099D
:03009B00000A0B4D
:00000001FF
