:02000000802955
:0400030012003F3276
:02000B000032C1
:020013000032B9
:02001B000032B1
:020023000032A9
:10002B00758107D2B4902000E4F0D288C289D2A89F
:10003B00D2AF80FEC0D0C0F0C082C083C002C0036C
:10004B00C004C005C006C0079020007A007BFF7C6F
:10005B00007DFEEDF0E0540F640FFF7E00EF601C9F
:10006B00C313FF50140AEE75F003A42CC082C08397
:10007B009000AF93FBD083D0820E80E1ED23FD0C7B
:10008B00BC03D0E4F0EBBA0102800274FFC289D04A
:10009B0007D006D005D004D003D002D083D082D0B5
:1000AB00F0D0D022010203040506070809000A0B51
:00000001FF
