:02000000802955
:020003000032C9
:03000B0002007D73
:020013000032B9
:02001B000032B1
:020023000032A9
:10002B00758107D2B490A00074FFF0758902758CAE
:10003B0038C28CC28DD2A9D2AF740512004B80FE90
:10004B00C082C083C28CC28DB40B00501A90009E2C
:10005B009364FF90A000F075300A753182753206FB
:10006B00758A38D28C800690A00074FFF0D083D0B4
:10007B008222D5301D75300AD53117D53214C28C7A
:10008B00C0E0C082C08390A00074FFF0D083D08208
:0E009B00D0E0323F065B4F666D7D077F6F79C8
:00000001FF
