:02000000802955
:0400030012003F3276
:02000B000032C1
:020013000032B9
:02001B000032B1
:020023000032A9
:10002B00758107D2B490E000E4F0D288C289D2A8DF
:10003B00D2AF80FEC0D0C0F0C082C083C002C0036C
:10004B00C004C005C0067AFF7B007C007DFE90E0FB
:10005B0000EDF0E0F45407F5F0ECFEE5F06013C3AF
:10006B0013F5F050070BEE9000A693FAEE2404FE66
:10007B0080E9ED23FD0CBC04D590E000E4F0C289CF
:10008B00EABB0102800274FFD006D005D004D00376
:10009B00D002D083D082D0F0D0D0220102030A0448
:0700AB0005060B0708090020
:00000001FF
